S00F0000446F6F724543552E73726563A4
S11300000C942A000C9447000C9447000C9447006D
S11300100C9447000C9447000C9447000C94470040
S11300200C9447000C9447000C9447000C94470030
S11300300C9447000C9447000C9447000C94470020
S11300400C9447000C9447000C9447000C94470010
S11300500C94470011241FBECFE5D4E0DEBFCDBF12
S113006010E0A0E6B0E0EAEEF4E002C005900D92E4
S1130070AE38B107D9F720E0AEE8B0E001C01D9278
S1130080A03AB207E1F70E948A010C9473020C941F
S113009000008AB388638ABB8AB3887F8ABB8FEFE8
S11300A08BBB08950F931F93CF93DF93A6E6B0E025
S11300B040E050E001E010E08BB388638BBB9BB35E
S11300C08C911296980102C0220F331F8A95E2F791
S11300D0822F809589238BBBE0E6F0E0C1E0D0E07D
S11300E060E070E003C06F5F7F4F219689B3208189
S11300F0329690E0022E02C0959587950A94E2F715
S113010080FD34C0C80102C0880F991F2A95E2F708
S11301109C0189B390E082239323892BD1F341304E
S1130120510581F042305105B9F041155105F1F402
S11301306115710539F16130710531F16230710574
S1130140A9F424C06115710519F16130710511F12B
S11301506230710559F420C061157105F9F0613000
S11301607105F1F062307105F9F41CC0C330D1059A
S11301700CF4B9CF4F5F5F4F4330510509F09CCF6A
S113018081E417C081E315C084E313C087E311C081
S113019082E30FC085E30DC088E30BC083E309C08D
S11301A086E307C089E305C0C330D1050CF49BCFB7
S11301B081E4DF91CF911F910F910895929882E489
S11301C08A95F1F700C0929A83ED90E30197F1F7D5
S11301D000C000000895CF93C82F909885B38F7006
S11301E09C2F907F892B85BB91980E94DE0085B35C
S11301F0282F2F7030E1C39FC0011124822B85BBAF
S1130200909891980E94DE00CF91089581E00E9419
S1130210EB0083EC99E00197F1F700C0000008952A
S113022087E893E10197F1F700C0000081B387608C
S113023081BB8FEF84BB82B3887F82BB85EA9EE05B
S11302400197F1F700C000000E94060182E00E94BD
S1130250EB0088E20E94EB0086E00E94EB0080E85D
S11302600E94EB008CE00E94EB000895CF93C82F0E
S113027085B38F709C2F907F892B85BB909A919822
S11302800E94DE0085B3282F2F7030E1C39FC00188
S11302901124822B85BB909A91980E94DE00CF9105
S11302A00895811107C0603168F4862F80680E9428
S11302B0EB000895813031F4603120F4862F806C96
S11302C00E94EB0008950F931F93CF93DF938C014B
S11302D0C0E0D0E015C021960E943601C031D1059E
S11302E021F480EC0E94EB000BC0CE0180970297B2
S11302F038F40E94060180E80E94EB00C0E0D0E0E0
S1130300F80181918F018111E6CFDF91CF911F9187
S11303100F910895EEE8F0E01082118212821582A6
S1130320138281E084830E9449000E94100140915D
S11303308E0050918F006091900070919100809197
S11303409200909193000E9408020F2EF1E4FF2E78
S1130350F02DCAE9D0E00E9406018EE00E94EB0075
S11303608FE690E00E94630160E081E00E94510109
S11303700E94520080936E000E94520080936E008F
S11303808134D1F3E0919400F0919500EA56FF4F47
S113039080830E943601809194009091950001968B
S11303A0909395008093940020916C0030916D009F
S11303B08217930709F71092950010929400F09217
S11303C06E000E9406018FE790E00E94630183ECB7
S11303D099E00197F1F700C000000E94060106E9C8
S11303E010E0F80181918F010E946902FFE32DE082
S11303F033E0F15020403040E1F700C000000E949B
S113040036010C171D0769F78F2D0E946E02A3CFCA
S1130410CF93DF9300D000D000D0CDB7DEB74983AF
S11304205A836B837C838D839E8386E0FE013196A1
S1130430AAE9B0E001900D928A95E1F79DB1EAE94D
S1130440F0E08181892B8DB98081843020F49DB1C5
S1130450892B8DB909C09CEF980F933028F49DB176
S11304608370892B8DB9709A80919D00813031F40D
S11304706C9A87B3806B87BBBE9807C0811105C097
S11304806C98BE9A87B38F7487BB80919C0081302F
S113049011F46D9A03C0811101C06D9880919F0081
S11304A0813011F46F9A03C0811101C06F9880915B
S11304B09D00813011F46E9A03C0811101C06E98C1
S11304C026960FB6F894DEBF0FBECDBFDF91CF9155
S11304D008958FB9779BFECF8FB108958FB9779B1D
S10D04E0FECF8FB10895F894FFCF0A
S11304EA0000010002000300040005000400414565
S11304FA6E7465722050617373576F72643A005751
S111050A61697420546F20436865636B0000C0
S9030000FC
