:100000000C942A000C9447000C9447000C94470071
:100010000C9447000C9447000C9447000C94470044
:100020000C9447000C9447000C9447000C94470034
:100030000C9447000C9447000C9447000C94470024
:100040000C9447000C9447000C9447000C94470014
:100050000C94470011241FBECFE5D4E0DEBFCDBF16
:1000600010E0A0E6B0E0E6EEF2E002C005900D92EE
:10007000A036B107D9F720E0A0E6B0E001C01D929C
:10008000A037B207E1F70E94E3000C9471010C94D1
:100090000000929882E48A95F1F700C0929A83ED6D
:1000A00090E30197F1F700C000000895CF93C82FA7
:1000B000909885B38F709C2F907F892B85BB9198EA
:1000C0000E94490085B3282F2F7030E1C39FC001E3
:1000D0001124822B85BB909891980E944900CF9162
:1000E000089581E00E94560083EC99E00197F1F7B2
:1000F00000C00000089587E893E10197F1F700C080
:10010000000081B3876081BB8FEF84BB82B3887F9F
:1001100082BB85EA9EE00197F1F700C000000E94D3
:10012000710082E00E94560088E20E94560086E03C
:100130000E94560080E80E9456008CE00E94560003
:100140000895CF93C82F85B38F709C2F907F892BF4
:1001500085BB909A91980E94490085B3282F2F70F3
:1001600030E1C39FC0011124822B85BB909A9198E6
:100170000E944900CF9108950F931F93CF93DF936F
:100180008C01C0E0D0E015C021960E94A100C031D2
:10019000D10521F480EC0E9456000BC0CE0180975F
:1001A000029738F40E94710080E80E945600C0E077
:1001B000D0E0F80181918F018111E6CFDF91CF91DD
:1001C0001F910F910895E4E6F0E0108211821282EF
:1001D000158281E0782F8383848340E050E060E0E3
:1001E00090E00E940B010E947B0004E610E08FE08B
:1001F00097E20197F1F700C00000C0E6D0E088E385
:100200000E946C018993C017D107C9F780E690E07E
:100210000E94BC00ECCFCF93DF9300D000D000D081
:10022000CDB7DEB749835A836B837C838D839E83EE
:1002300086E0FE013196AAE6B0E001900D928A9523
:10024000E1F79DB1EAE6F0E08181892B8DB98081EB
:10025000843020F49DB1892B8DB909C09CEF980F93
:10026000933028F49DB18370892B8DB9709A809159
:100270006D00813031F46C9A87B3806B87BBBE9878
:1002800007C0811105C06C98BE9A87B38F7487BB75
:1002900080916C00813011F46D9A03C0811101C00E
:1002A0006D9880916F00813011F46F9A03C08111B5
:1002B00001C06F9880916D00813011F46E9A03C077
:1002C000811101C06E9826960FB6F894DEBF0FBE5E
:1002D000CDBFDF91CF9108958FB9779BFECF8FB1BE
:0602E0000895F894FFCF21
:00000001FF
